:020000040800F2
:10300000D85E002011330008F34F0008EB4F000892
:10301000EF4F0008EF4C00084B580008000000007C
:1030200000000000000000000000000079320008ED
:10303000F34C000800000000BD320008F9520008FF
:103040002B3300082B3300082B3300082B330008E8
:103050002B3300082B3300082B330008F54C0008F5
:103060002B3300082B330008054D00082B330008D4
:103070002B3300082B3300082B3300082B330008B8
:103080002B3300082B3300082B3300082B330008A8
:103090002B3300082B3300082B3300082B33000898
:1030A0002B3300082B3300082B3300082B33000888
:1030B0002B3300082B3300082B3300082B33000878
:1030C0002B3300082B3300082B3300082B33000868
:1030D0002B330008ED530008BD540008415500088B
:1030E0002B3300082B3300082B3300082B33000848
:1030F0002B3300082B3300082B3300082B33000838
:103100002B3300082B3300082B3300082B33000827
:10311000695300082B3300082B3300082B330008B9
:103120002B3300082B3300082B3300082B33000807
:1031300000F002F800F090F80AA090E8000C824439
:103140008344AAF10107DA4501D100F085F8AFF216
:10315000090EBAE80F0013F0010F18BFFB1A43F075
:1031600001031847B8590000D8590000103A24BF8D
:1031700078C878C1FAD8520724BF30C830C144BFDC
:1031800004680C607047000000230024002500261E
:10319000103A28BF78C1FBD8520728BF30C148BFBA
:1031A0000B6070476E2900F0A983702900F0138529
:1031B000662905F0B383652905F0B083672905F01A
:1031C000AD836129AFF3008003681B0A28BF41F07B
:1031D0008001692900F00681642900F003817529C6
:1031E00000F000816F2900F0A184782900F0DF84CD
:1031F000E92900F03B84E42900F03884F52900F047
:103200003584EF2900F09E84F82900F0DE840368FD
:10321000DB0928BF41F08001632900F0AA837329EC
:1032200000F0AF83E32900F0D587F32900F0DA87B7
:10323000002070471FB501F099F80400002000211C
:1032400005F040FB401C60600020002105F050FBB1
:10325000E0601FBD10B510BD01F062F81146FFF728
:10326000E9FF02F013FF01F041F903B4FFF7F2FFA9
:1032700003BC02F007FB0000224B19680868B0E8A5
:10328000F00F80F30988BFF36F8F4FF0000080F3D9
:1032900011884EF00D0E70470000000006480068CF
:1032A000006880F3088862B661B6BFF34F8FBFF342
:1032B0006F8F00DF00BF00BF08ED00E0EFF3098073
:1032C000BFF36F8F0F4B1A6820E9F00F106008B53D
:1032D0004FF0500080F31188BFF34F8FBFF36F8F13
:1032E00004F0C4FB4FF0000080F31188BDE80840F3
:1032F00019680868B0E8F00F80F30988BFF36F8F92
:10330000704700BF68000020EFF3058070470000A1
:103310000948804709480047FEE7FEE7FEE7FEE769
:10332000FEE7FEE7FEE7FEE7FEE7FEE704480549A5
:10333000054A064B70470000095300083131000868
:10334000D8580020D85E0020D85A0020D85A002033
:10335000704700001CB50C46064B7B446946009044
:10336000204600F0E4FA04460020694600F0F2FA34
:1033700020461CBDF70500000FB4044910B503AA90
:10338000029800F003FB10BC5DF814FB3C00002029
:1033900070B50C460546012A05D02878800600D570
:1033A000EA69002302E0012305E05B1C934202D29C
:1033B000E05C0028F9D1A869E618C01AA861286A5B
:1033C00018442862284600F007FA04E0D5E90121F4
:1033D00014F8010B9047B442F8D3284600F012FAD3
:1033E00070BD00002DE9F0410646002410687529E3
:1033F000314616A510D000F016FA002802DA404235
:1034000013A507E031688A0701D512A502E0490734
:1034100004D511A5012401E000F00EFA00210A22D2
:1034200006F1240709E0B0FBF2FCB0FBF2F302FB6B
:103430001C00303078541846491C0028F3D123462C
:103440002A463046BDE8F04100F0FFB90000000018
:103450002D0000002B000000200000002DE9F05F8F
:10346000894604464FF0000ADFF874B1FB44C0F807
:1034700020A02046E1688847002874D0252806D07F
:10348000D4E901219047206A401C2062F1E7002620
:103490005F462046E16888472028054607DB312D36
:1034A00005D2781910F8200C08B10643F1E7B007EF
:1034B00001D526F00406C4F81CA00027C4F818A003
:1034C0002A2D09D0284602F0D6F938B304EB870834
:1034D000303DC8F8185019E059F8041B204604EB99
:1034E00087029161E1688847012F054618D1E0699C
:1034F000002820DA26F020061DE0D8F8180000EB9E
:10350000800005EB40003038C8F818002046E1681C
:103510008847054602F0AFF90028EED1012F0AD006
:103520002E2D08D12046E16888477F1C0546022FD2
:1035300046F02006C4DBA069002803DA404246F0CA
:103540000106A061F00701D026F010066C2D0BD00B
:10355000682D09D04C2D39D06A2D35D0742D35D039
:103560007A2D33D016E038E0E1682F4620468847B0
:10357000B842054609D16C2F26D04FF48060E1682F
:10358000064320468847054604E06C2F1AD04FF4C6
:10359000807006430DB3A5F14100192802D82035EB
:1035A00046F400664A462946204626604E46FFF706
:1035B000F9FD80B101280BD0F61D26F0070000F1BF
:1035C000080956E74020E4E78020D8E70020D6E746
:1035D00006F104094DE7284652E7206ABDE8F09F4E
:1035E000E854000070B5064600F0F2F8046805469D
:1035F00030460A22002100F0F9FA2C6070BD401E0E
:10360000CAB210F8011F8A4202D00029F9D1002065
:10361000704740EA0103024630B59B0710D14FF0D6
:10362000013400E008C208C91D1B9D4315EAC41FF0
:10363000F8D013F0FF0102F8011B0DD01B0AF8E7C8
:1036400011F8013B002B02F8013B05D011F8013BBA
:10365000002B02F8013BF3D130BD10B5431C02E052
:1036600010F8011B71B18107FAD14FF0013202C885
:103670008C1A8C4314EAC211F9D0C01A0A0603D07E
:10368000C01E10BDC01A10BD0A0401D0801E10BD9E
:103690000902FCD0401E10BD40EA010370B59B0733
:1036A0002ED14FF00136042A2AD308C810C99D1B19
:1036B0009D43121F15EAC61517D0D8B2E1B2401AC1
:1036C00050EA056110D198B2A1B2401A50EA054102
:1036D0000AD123F07F4024F07F41401A50EA0521AF
:1036E00002D1180EA0EB146070BDA342DBD018BA53
:1036F00021BA884201D9012070BD4FF0FF3070BD62
:103700000AB9002070BD10F8013B11F8014B63B1FC
:10371000A3420AD1521E08D010F8013B11F8014B08
:103720001BB1A34201D1521EEDD1181B70BD032A5B
:1037300040F2308010F0030C00F0158011F8013BCE
:10374000BCF1020F624498BF11F801CB00F8013BB5
:1037500038BF11F8013BA2F1040298BF00F801CB79
:1037600038BF00F8013B11F0030300F07782083AFC
:10377000C0F0088051F8043B083A51F804CBA0E8A7
:103780000810F5E7121D5CBF51F8043B40F8043BFC
:10379000AFF30080D20724BF11F8013B11F801CB31
:1037A00048BF11F8012B24BF00F8013B00F801CB02
:1037B00048BF00F8012B704702F0FF0343EA0322E1
:1037C00042EA024200F07EBA704770477047704785
:1037D000004870477458002070B504468569006839
:1037E000C10601D5302600E02026C00707D070BDF5
:1037F000D4E9012130469047206A401C20626D1EAA
:10380000F6D570BD70B5044685690078C00707D14C
:1038100070BDD4E9012120209047206A401C20621D
:103820006D1EF6D570BD09684A0501D540B27047D6
:10383000C905FCD500B2704709684A0501D5C0B278
:103840007047C905FCD580B270472DE9F0470D4699
:1038500099469246044600F124080168880604D57A
:10386000E06921F01001216000E00120A84201DDA3
:10387000471B00E00027A1697A1902EB0900081A2A
:10388000A0612078C00602D42046FFF7A5FF0026DD
:1038900008E0D4E901211AF806009047206A401C8C
:1038A000761C20624E45F4DB2078C0060AD52046FF
:1038B000FFF792FF06E0D4E9012130209047206A0B
:1038C000401C2062381EA7F10107F4DC07E0D4E9B0
:1038D000012118F805009047206A401C2062281E2C
:1038E000A5F10105F3DC2046FFF78CFF20780006E8
:1038F00002D50220BDE8F0870120FBE711680268CD
:10390000006A530501D508700AE0D30501D5088087
:1039100006E0130603D5C217C1E9000200E0086003
:103920000120704701694A1C02610878704700B5A0
:103930008FB0CDE901310021059105497944CDE9E8
:10394000031011466846FFF789FD0FB000BD000067
:10395000E5FFFFFF0A6802F8010B0A60704710B527
:10396000436913B1AFF3008001E0FFF711FD0120BF
:1039700010BD127800F124010A7000224A70012261
:10398000EDE711684FF0FF32E9E70000074B70B533
:103990000D467B44FFF7CBFF0446284600F075FC3C
:1039A00010B14FF0FF3070BD204670BDF321000014
:1039B0002DE9FF5F15468A460446DFF8AC80F844DF
:1039C0000027D8E900103E46CDE9001010E03AF893
:1039D00016106A4602A800F05CFC411C07D0217852
:1039E000890603D5E269391891420DD80744761C3F
:1039F0002078800602D5E069B84205DDAE42E6DBFC
:103A00003AF816000028E2D1A069C01BA061204648
:103A1000FFF7E2FED8E90010CDE90010002017E022
:103A20003AF818106A4602A800F033FCB0F1FF3FE4
:103A300081460BD000250DF1080B05E0D4E90121EA
:103A40001BF8050090476D1C4D45F7D308F10100A8
:103A5000B0428046E4DB206A384420622046FFF70B
:103A6000D1FEBDE8FF9F0000AA4F00002DE9F04104
:103A70008046D21D22F007020025D2E90002F52976
:103A800015A614D0011E72F1000106DA0023D0EB56
:103A9000030063EB020211A608E0D8F800108B07C0
:103AA00001D50FA602E0490701D50EA60125114652
:103AB000002408F1240704E000F030F930323A55D0
:103AC000641C50EA0102F7D12B463246214640469B
:103AD000BDE8F041FFF7B9BE000000002D00000076
:103AE0002B0000002000000030B4002100F124046D
:103AF00008E002F00705D208303542EA4372DB08DD
:103B00006554491C52EA0305F3D10468002310A24E
:103B1000250708D504F020040C4304D0C469012310
:103B20000CA2641EC46130BCFFF78FBE10B5044602
:103B300021461068FFF780FE02462046BDE810408F
:103B40000023D1E7D21D22F00701D1E90023CBE702
:103B50000000000030000000F0B40D4601880905A7
:103B600002D5214C7C4402E01F4C7C440E340021E1
:103B700000F1240608E002F00F071209E75D42EAAF
:103B800003721B097754491C52EA0307F3D10278E8
:103B90000023120704D5702D06D009B10223113479
:103BA0002246F0BCFFF751BE01231034F8E770B590
:103BB00004460D4621461068FFF73EFE02462946A0
:103BC0002046BDE870400023C6E7D21D22F007035F
:103BD000D3E90023C0E70368126843F020030360C1
:103BE0000823C3610023B7E70C4E00002DE9F0471E
:103BF00091460F4680460446002614F8015B2DB11D
:103C000000F084F80068405DC007F6D12B2D02D08B
:103C10002D2D18D0641E4A463946204600F0E6FA9B
:103C200027B13968A14201D1C7F800804FF00204E2
:103C300071050BD54042002803DDFFF7C9FD046084
:103C4000A007BDE8F08746F48066E4E70028F8DACC
:103C5000FFF7BEFD04606FF00040F2E710B5203AB8
:103C6000C0F00B80B1E81850203AA0E81850B1E835
:103C70001850A0E81850BFF4F5AF5FEA027C24BFEB
:103C8000B1E81850A0E8185044BF18C918C0BDE8E2
:103C900010405FEA827C24BF51F8043B40F8043BAB
:103CA00008BF7047D20728BF31F8023B48BF11F860
:103CB000012B28BF20F8023B48BF00F8012B7047BA
:103CC0004FF000020429C0F0128010F0030C00F045
:103CD0000283CCF1040CBCF1020F18BF00F8012BD9
:103CE000A8BF20F8022BA1EB0C0100F0F4BA5FEAA8
:103CF000C17C24BF00F8012B00F8012B48BF00F85D
:103D0000012B7047004870477458002010B500F030
:103D10002DFB001D10BD00BFAD4B000030B5B0F154
:103D20000A024FEA900E71F100034EEA817EB0EB79
:103D30000E0061EB91014FEA101E4EEA017E10EB7E
:103D40000E0041EB11114FEA102E4EEA016E10EBFE
:103D50000E0041EB11214FEA104E4EEA014E10EBDE
:103D60000E0041EB1141401841F100014FEAD00033
:103D700040EA41704FEAD10110EB80054FEA81041F
:103D800044EA907444EB01046D1944EB0404521BA3
:103D9000A3414FF0000348BF0A3200D530BD401C9C
:103DA00041F1000130BD70472DE9FF4F0C461E4622
:103DB0004FF0FF378BB0D2E90001DDF860800A9048
:103DC0008A46C1F30A5505B93D46002108464FF021
:103DD0000000BAF1000F00F4400005DA00EB8000AB
:103DE0004FF4400101EA50004FEA9059B9F1010F38
:103DF00000DDB9460A9850EA4A000ED044F6105049
:103E0000A5F2FF3545432F14B8F1000F1ED07542BF
:103E1000291E1EDDC9F100021CE0B8F1010F4FF0B0
:103E2000000001D0302103E0F24305E02154401CA2
:103E3000B042FBDB30460022002121540B99C1F82F
:103E40000880C1E900200FB0BDE8F08FBD1B6D1CDC
:103E5000DEE74A4600DA694206A800F0D9FA06AB66
:103E600093E8070003AB83E8070050460A9900F087
:103E700083FB8DE80700A0F500501F3800900398E1
:103E8000002D09DD42F21F014A46084403A90390B0
:103E9000684600F0E2FD08E0A0F500504A461F38F1
:103EA00003A90390684600F0ECFD8DE807000004CC
:103EB000000C03D04FF0FF30410800E01046B8F18D
:103EC000000F03D00022009215461EE0751E05D497
:103ED000FFF724FF303262556D1EF9D5B34601223B
:103EE000084302D000227F1C04E02078302801D152
:103EF00000227F1E002A099786D01DE0112D07DAC7
:103F0000FFF70CFF303262556D1C50EA0102F5D10B
:103F1000084302D00098C8B10EE00021681E05E0F9
:103F2000235C625C63542254401E491C8142F7DBCF
:103F3000AB46A81B401E0990002004F80B000B980C
:103F4000099AC0F80880C0E9002B7CE711264FF0E1
:103F5000000859E72DE9F04F88460446D21D22F0AB
:103F6000070191B0D1E90001CDE90A0101F06FFC30
:103F700002460B98C00F01D02D2007E02068810772
:103F800001D52B2002E0202101EAC000032A09907C
:103F900001D0072A05DB03464146204600F0EAF936
:103FA0000BE12078800601D5E06900E00620B8F139
:103FB000650F814606D0B8F1660F18D0B8F1670FCB
:103FC00070D131E00020B9F1110F009001DB112315
:103FD00001E009F101030AAA01A90CA8FFF7E4FE18
:103FE000DDE90C70002609F10105834647E0012058
:103FF0004B4600904FF000470AAA01A90CA8FFF712
:10400000D3FEDDE90DB00C995D46002610B909F12B
:1040100001000D18B9EB050003D4C0F1FF3609F11A
:104020000105A5EB09002BE0B9F1010F01DA4FF012
:1040300001090020B9F1110F0090484601DD11235C
:1040400000E003460AAA01A90CA8FFF7ADFEDDE9CE
:104050000C704D4600268346207800070AD4AB45F5
:1040600000DA5D4601A8012D04DD411911F8011C9B
:10407000302907D04F4502DA17F1040F04DA012086
:1040800082460FE06D1EEEE7002F02DCED1B3E4482
:1040900003E0781CA84200DD7D1CB81B00F1010A7A
:1040A0004FF000472078000703D4AA4501DB4FF00A
:1040B000FF3A0021B7F1004F0DF143088DF843108E
:1040C00024D002202B23002F01DA7F422D230A2146
:1040D000021EA0F1010000DC5FB197FBF1FC97FB31
:1040E000F1F201FB1C7C17460CF1300C08F801CDF5
:1040F000EEE7A8F1010003702188090501D54521EB
:1041000000E06521A0F1010800F8011C09980FA941
:10411000A1EB0807FF1D00B10120411901EBEA7076
:10412000A1693844081A401EA0612078C00602D454
:104130002046FFF751FB099828B1D4E901219047A7
:10414000206A401C20622078C00622D52046FFF756
:1041500043FB1EE0002E04DBB34502DD01A8805DB9
:1041600000E03020D4E901219047206A401C206201
:10417000761CAAF101005FEA000A0AD100F0F6F805
:10418000C0680168405CD4E901219047206A401C66
:104190002062281EA5F10105DCDC07E0D4E901213D
:1041A00018F8010B9047206A401C2062381EA7F1C6
:1041B0000107F3DC2046FFF725FB032011B043E69F
:1041C00010B5436913B1AFF3008001E0FFF7F0FBD6
:1041D000012010BD128800F1240182840022C284D3
:1041E0000122EDE711684FF0FF32E9E72DE9F05FBA
:1041F000824615468B4600270AF10104B94600782D
:10420000302801D09DB113E014F8010B0127782864
:1042100003D0582801D045B10AE00DB1102D07D1C7
:10422000002714F8010B102502E0082500E00A25FC
:104230000026B0460EE005FB080005FB06F101274D
:104240001FFA80F801EB1046B6F5803F00D3B9465F
:1042500014F8010B294600F0CDF80028EBDABBF189
:10426000000F05D00FB1641E00E05446CBF80040AB
:10427000B9F1000F06D0FFF7ABFA02210160C81EAA
:10428000BDE8F09F48EA0640FAE7007B00F08000B6
:10429000704770B516460C460546FFF737FD0368B4
:1042A00093F80101012806D0FF2C0FD8185D68B1E2
:1042B00001202C7070BDD3F807013246214603F26D
:1042C000071303442846BDE8704018474FF0FF30FD
:1042D00070BD4FF0000200B5134694469646203953
:1042E00022BFA0E80C50A0E80C50B1F12001BFF4AF
:1042F000F7AF090728BFA0E80C5048BF0CC05DF815
:1043000004EB890028BF40F8042B08BF704748BF62
:1043100020F8022B11F0804F18BF00F8012B7047D6
:104320007546FFF7EFFCAE4605006946534620F0A0
:104330000700854618B020B5FEF7F8FFBDE820401D
:104340004FF000064FF000074FF000084FF0000B51
:1043500021F00701AC46ACE8C009ACE8C009ACE804
:10436000C009ACE8C0098D4670470000004870479E
:10437000945800202DE9F0411F46044603260168A9
:10438000072A01F4006004DB08B116A505E016A5B4
:1043900003E008B115A500E015A521F0100020608C
:1043A000A069C01EA0610FB1401EA0612046FFF7AA
:1043B00013FA4FB1D4E9012138469047206A401CD6
:1043C0002062C01C206206E0206AFAE7D4E90121DD
:1043D00015F8010B9047761EF8D22046FFF712FA27
:1043E000BDE8F0814E414E006E616E00494E4600C0
:1043F000696E66003A2800D2303820F02002412A47
:1044000001D3A2F13700884201D34FF0FF3070474B
:104410002DE9F047814616468AB0334878440DC8E6
:104420008DE80D0030487844801C03AC0DC884E84A
:104430000D0041F69B300844372190FBF1F290FBD0
:10444000F1F5A5F1800501FB12041B3C02D5644285
:10445000012000E00020DFF890A080460027FA4409
:10446000AAF1BE0A0DE0E00709D03246684607EB24
:1044700047010AEB810100F004FB8DE8070064109E
:104480007F1C002CEFD1184F7F44AC3F18E0E807A9
:1044900014D007EB04100DF1180A90E80E008AE81A
:1044A0000E00C068F04201D198190890324606A962
:1044B00003A800F0E6FA03AB83E807006D10641C64
:1044C000002DE4D132466946B8F1000F03A802D0AE
:1044D00000F0C3FA01E000F0D4FAC9E90001C9F81C
:1044E00008200AB0BDE8F087F84500000446AFF3A5
:1044F00000802046FEF7B9FE4FF0013C50F8042B37
:1045000051F8043B9A4221D1A2EB0C03934313EAE6
:10451000CC1317D150F8042B51F8043B9A4215D113
:10452000A2EB0C03934313EACC130BD150F8042BEA
:1045300051F8043B9A4209D1A2EB0C03934313EACE
:10454000CC13DBD04FF00000704700BFD01A01BA87
:10455000B1FA81F101F0180122FA01F0CB40C1F16A
:104560002001DBB2C0B2C01A2CFA01F3D11A914378
:1045700011EAC311E6D170475FEA400C08BF91F021
:10458000000F4FEA8C234FEAC12243EA51514FEA10
:104590001C5018BF00F5F0404FEA300018BF41F042
:1045A00000415FEA6C5C00F02980BCF1FF3F08BF6E
:1045B00040F080407047130C06BF12044FF0100CFF
:1045C0004FF0000C130E04BF12020CF1080C130F75
:1045D00004BF12010CF1040C930F04BF92000CF104
:1045E000020CD30F04BF52000CF1010C11464FF026
:1045F0000002A0F11F00A0EB0C00704711F0004F6B
:1046000008BF704731F000413FF4D5AF0B0C06BF37
:1046100009044FF0100C4FF0000C0B0E04BF090200
:104620000CF1080C0B0F04BF09010CF1040C8B0FEB
:1046300004BF89000CF1020CCB0F04BF49000CF140
:10464000010CCCF12003A0EB0C0022FA03F302FAD8
:104650000CF241EA030100F10100704720F07F4CA9
:1046600080EA030023F07F47ACEB070303F57C539C
:1046700000F0004003F1FF032DE980494FEA154B9C
:1046800009B44FEA144325EA0B4E24EA03480FF21B
:10469000042606EB132749083E785FEA320203FB43
:1046A0000667C7F5000707FB06F64FEA54374FEADF
:1046B000D64606F1020607FB066CCCF1005C4FEA19
:1046C0001C472CEA074C07FB06F40CFB06F504EB31
:1046D00015464FEA961634BF00204FF000404FEACF
:1046E000D13706FB07FC4FEA1C4C0CFB0BF7D21B27
:1046F00003FB0CF761EB07010CFB0EF7B0EB074077
:1047000072EB17420CFB08F734BFA2EB0742B2EB87
:10471000074261EB17414FEA0C444FEA910706FB51
:1047200007FC4FEA1C4C0CFB0BF7B0EBC74072EBDD
:10473000573203FB0CF734BFA2EBC742B2EBC742C0
:1047400061EB57310CFB0EF7B0EBC70072EB577201
:104750000CFB08F734BFA2EBC702B2EBC70261EB58
:104760005771039F4FEA816141EA921104EBCC0437
:104770004FEAD1374FEA826206FB07FC42EA901209
:104780004FEA80604FEA1C4C0CFB0BF7D21B03FB7B
:104790000CF761EB07010CFB0EF7B0EB074072EB77
:1047A00017420CFB08F734BFA2EB0742B2EB0742FB
:1047B00061EB17414FEA8C554FEA910704EB9C24BB
:1047C00006FB07FC4FEA1C4C0CFB0BF7B0EBC74099
:1047D00072EB573203FB0CF734BFA2EBC742B2EBCC
:1047E000C74261EB57310CFB0EF7B0EBC70072EB21
:1047F00057720CFB08F734BFA2EBC702B2EBC7023B
:1048000061EB577115EB4C254FEA816141EA92113A
:104810004FEA82624FEAD13742EA901206FB07FC68
:1048200044F100044FEA80604FEA1C4C0CFB0BF78C
:10483000D21B03FB0CF761EB07010CFB0EF7B0EB8F
:10484000074072EB17420CFB08F734BFA2EB07429C
:10485000B2EB074261EB174115EB1C154FEA8131B2
:1048600041EA92414FEA823242EA90424FEA803076
:104870004FEA0C7644F1000448EA03434EEA0B4841
:104880004FF0000EB2EB080C71EB030724BF624639
:1048900039464EEB0E0E4FF0000B001852414941C5
:1048A0004BEB0B0BB2EB080C71EB03077BF1000B2E
:1048B00024BF624639464EEB0E0E4FF0000B001837
:1048C000524149414BEB0B0BB2EB080C71EB030768
:1048D0007BF1000B24BF624639464EEB0E0E51EAC7
:1048E000020718BF46F0010616EB0E7655F10002DE
:1048F00054F1000103D5BDE88901BDE80088BDE899
:104900008901BDE80048B619524141EB0101A3F10C
:104910000103704780807F7E7D7C7B7A7978777613
:1049200076757473727171706F6E6E6D6C6C6B6A8C
:104930006A6968686766666564646363626161602A
:10494000605F5F5E5E5D5D5C5C5B5B5A5A595958A7
:104950005857575656555555545453535252525111
:10496000515050504F4F4F4E4E4D4D4D4C4C4C4B67
:104970004B4B4A4A4A4949494848484747474746AE
:1049800046464545454444444443434343424242EA
:1049900042414141002B26D4770021D01CB54FEA7B
:1049A000370703B44FF010004FF010014FF0000034
:1049B0000FBCBDE810400BF1010BBBF1010F08BFAC
:1049C0005FEA170722BF12F1010211F101014FF056
:1049D000004143F1000300F0004043EA000070474B
:1049E000F9D35708DAE746EA064613F1400F4FEAD3
:1049F00016461FDD13F1200FDFBF16430A460021C4
:104A000020335B42C8D0C3F1200746EA064602FACB
:104A100007F74FEA164646EA0706C3F1200722FACF
:104A200003F201FA07F721FA03F14FF0000342EA1B
:104A30000702B1E746EA020646EA06464FEA16468C
:104A400046EA0106BCBF46EA0646360C4FF00003B4
:104A50004FF000024FF000019EE72DE9C048934659
:104A600030B491E8380007C831EA400C48BF34EA56
:104A7000430C03D5FFF7F2FDFFF78CFFF0BCBDE858
:104A800000882DE9C048934630B491E8380007C843
:104A900010F0804F08BF13F0804F03D100F005F8ED
:104AA000FFF778FFF0BCBDE8008820F07F4780EA80
:104AB000030023F07F4C07EB0C03A3F57C5300F0BD
:104AC0000040A3F1FE0392F0000F00F0B38095F0D8
:104AD000000F00F077802DE901494FEA11404FEABD
:104AE000144621EA004800FB06FC24EA064708FBBE
:104AF00006F607FB08F800FB07F718EB06484CEB37
:104B0000164C4FEA124B18EB07484FEA15464CEB90
:104B1000174022EA0B4E0BFB06FC25EA06470EFB6C
:104B200006F607FB0EFE0BFB07F71EEB064E4CEBE3
:104B3000164C4FF000061EEB074E4CEB174B18EBD4
:104B40000B0840F1000018EB0E0B58EB000840F189
:104B500000008F1A4FF000013CBFC943661B14BF11
:104B6000B5EB040C00213CBFC943F61B4FEA1744C8
:104B70004EEA8E0E27EA04454FEA1C4704FB076203
:104B80002CEA074C05FB07F70CFB05F604FB0CFCB5
:104B900016EB074642EB174216EB0C4642EB1C4263
:104BA0001BEB060658EB0202414146EA9E0601D580
:104BB000BDE80189B619524141EB0101A3F101039E
:104BC000BDE801894FEA14454FEA114724EA05463A
:104BD00021EA074C05FB07F406FB07F70CFB06F17F
:104BE00005FB0CFC11EB074144EB17444FEA12475D
:104BF00011EB0C4144EB1C4422EA074C05FB07F285
:104C000006FB07F70CFB06F605FB0CFC16EB07464C
:104C100042EB174216EB0C4642EB1C456A1854F166
:104C2000000148BF7047B619524141EB0101A3F1A1
:104C30000103704795F0000F37D04FEA11424FEA59
:104C4000144721EA024624EA074C02FB07F106FB5F
:104C500007F70CFB06F402FB0CFC14EB074441EBDA
:104C600017414FEA154714EB0C4441EB1C4125EA70
:104C7000074C02FB07F506FB07F70CFB06F602FBE9
:104C80000CFC16EB074645EB174516EB0C4645EBBF
:104C90001C42121951F1000148BF7047B619524128
:104CA00041EB0101A3F1010370474FEA14454FEABC
:104CB000114724EA054621EA074C05FB07F106FBEC
:104CC00007F70CFB06F24FF0000605FB0CFC12EB9D
:104CD000074241EB174112EB0C4251EB1C4148BF1C
:104CE0007047921841EB0101A3F10103704700BF27
:104CF000FEE7704710B5022000F012F8022000F025
:104D000009F810BD10B5102000F00AF8102000F0CE
:104D100001F810BD0149086070470000140401400B
:104D2000014600200022074B1B6803EA0102054BE5
:104D300014331B680B4013B10AB1012000E00020BE
:104D40007047000000040140002123498279002AB5
:104D50003AD00A46126803689A430B461A600A1D45
:104D6000126803689A430B1D1A60027911440A689D
:104D700003681A430A60184A0832126803689A43A3
:104D8000154B08331A601A1D126803689A43124BB8
:104D90000C331A604279102A0ED11A1F1268036868
:104DA0001A430D4B08331A601A1D126803681A4320
:104DB000094B0C331A600DE00749427911440A6827
:104DC00003681A430A6005E0027911440A6803681F
:104DD0009A430A60704700000004014004200B4918
:104DE000C96801F0010109B101200EE00749C96855
:104DF00001F0040109B1022007E00449C96801F08B
:104E0000100109B1032000E0042070470020024097
:104E100070B504460D460426F00200F025F806465B
:104E2000042E11D10948006940F0010007490861CA
:104E30002580F00200F018F806460448006941F6A3
:104E4000FE71084001490861304670BD00200240F3
:104E5000024803494860034848607047230167459A
:104E600000200240AB89EFCD00B502460423FFF7D6
:104E7000B5FF034603E0FFF7B1FF0346521E012BC7
:104E800001D1002AF7D102B90523184600BD000060
:104E900030B500228B071C0F0F2303FA04F20B4BD3
:104EA0008C1053F824309343084C8D1044F825306F
:104EB00023468C1053F824308C07240F00FA04F496
:104EC0002343024C8D1044F8253030BD08000140CA
:104ED0002DE9F04102460025002600200023002491
:104EE000002791F803C00CF00F0591F803C00CF0F7
:104EF000100CBCF1000F03D091F802C04CEA05057C
:104F000091F800C0BCF1000F31D0146800202BE0F4
:104F10004FF0010C0CFA00F3B1F800C00CEA0306E4
:104F20009E4220D183004FF00F0C0CFA03F7BC43D4
:104F300005FA03FC4CEA040491F803C0BCF1280F05
:104F400006D14FF0010C0CFA00FCC2F814C00AE0C4
:104F500091F803C0BCF1480F05D14FF0010C0CFAD9
:104F600000FCC2F810C0401C0828D1D31460B1F86E
:104F700000C0BCF1FF0F34DD546800202EE000F1CA
:104F8000080C4FF0010808FA0CF3B1F800C00CEA65
:104F900003069E4221D183004FF00F0C0CFA03F759
:104FA000BC4305FA03FC4CEA040491F803C0BCF1CD
:104FB000280F05D100F1080C08FA0CF8C2F814808B
:104FC00091F803C0BCF1480F07D100F1080C4FF075
:104FD000010808FA0CF8C2F81080401C0828CED34B
:104FE0005460BDE8F0810161704700BFFEE700BF7B
:104FF000FEE7704770B5002100230F22C47804B388
:10500000154C246804F4E064C4F5E064210AC1F19D
:105010000403CA40447804FA03F18478144021431D
:1050200009010E4C0678A155047804F01F050124EF
:10503000AC4005786D11AD0005F1E025C5F80041E3
:1050400009E0047804F01F050124AC40044D067803
:10505000761145F8264070BD0CED00E000E400E05C
:1050600080E100E002490143024A116070470000FC
:105070000000FA050CED00E0024A0A400243024B30
:105080001A60704780FFFF1F08ED00E0BFF34F8FED
:105090000648006800F4E06005490843001D034924
:1050A0000860BFF34F8F00BFFEE700000CED00E08B
:1050B0000000FA0529B1064A12690243044B1A613D
:1050C00004E0034A12698243014B1A6170470000F1
:1050D0000010024029B1064A92690243044B9A61CA
:1050E00004E0034A92698243014B9A6170470000D1
:1050F0000010024029B1064AD2680243044BDA602C
:1051000004E0034AD2688243014BDA607047000032
:105110000010024030B500210022002400232D4D54
:105120006D6805F00C0121B1042905D0082923D1AF
:1051300005E0294D056022E0274D05601FE0254D63
:105140006D6805F47012234D6D6805F480340225F6
:1051500005EB92421CB9214D554305600BE01D4DF6
:105160006D6805F400351DB11C4D5543056002E026
:10517000194D5543056002E0174D056000BF00BFA3
:10518000144D6D6805F0F0010909154D6B5C05685B
:10519000DD4045600F4D6D6805F4E061090A104D72
:1051A0006B5C4568DD4085600A4D6D6805F46051B3
:1051B000C90A0B4D6B5C4568DD40C560054D6D68E7
:1051C00005F44041890B074D6B5CC568B5FBF3F5F1
:1051D000056130BD0010024000127A0000093D0058
:1051E000000000201000002010B500F001F810BDF4
:1051F0000CB50020019000903348006840F48030E6
:105200003149086000BF3048006800F40030009069
:105210000198401C0190009818B90198B0F5A06F52
:10522000F1D12948006800F4003010B1012000904D
:1052300001E0002000900098012843D12348006835
:1052400040F01000214908600846006820F0030083
:1052500008600846006840F0020008601A4840688C
:10526000194948600846406848600846406840F46C
:10527000806048600846406820F47C10486008461A
:10528000406840F4E81048600846006840F08070CC
:10529000086000BF0C48006800F000700028F9D0DA
:1052A0000948406820F00300074948600846406804
:1052B00040F00200486000BF0348406800F00C0066
:1052C0000828F9D10CBD0000001002400020024067
:1052D000042808D14FF0E021096941F004014FF0A2
:1052E000E022116107E04FF0E021096921F004019B
:1052F0004FF0E0221161704710B502F0D5FF012890
:1053000001D002F057FC10BD10B51348006840F002
:1053100001001149086008464068104908400E49DC
:105320004860084600680E4908400B490860084676
:10533000006820F4802008600846406820F4FE00E1
:1053400048604FF41F008860FFF74EFF4FF0006089
:105350000449086010BD0000001002400000FFF882
:10536000FFFFF6FE08ED00E010B540F225511C48A5
:1053700000F0A7F920B31A4800F05EFAC4B2194849
:10538000008800F40040D8B90A2C01D00D2C06D1B9
:105390001448006840F400401249086010E01148C9
:1053A0000088C0F30D0010490C540E480068401CE2
:1053B0000C49086008460068FF2801DD00200860ED
:1053C0004FF45871064800F07CF938B1044800F0F9
:1053D00033FA4FF45871024800F0FCF810BD000099
:1053E000004C0040380000202804002070B540F236
:1053F00025512D4800F065F9002842D02A4800F0D8
:105400001BFAC4B22948008800F40040002838D1B3
:105410000A2C01D00D2C15D12448006840F400401E
:10542000224908602248006803F05AF90546012D18
:1054300027D135B300071F490860BFF34F8FBFF373
:105440006F8F1EE0082C0BD118480068401E1749CA
:10545000086008460068012813DA0020086010E0A0
:1054600012480088C0F30D0013490C540F4800681F
:10547000401C0E49086008460068FF2801DD002036
:10548000086040F22441084800F01BF910B10648BA
:1054900000F0D2F94FF45871034800F012F910B13E
:1054A000014800F0C9F970BD003801402C0000200F
:1054B0002001002004ED00E02801002010B540F29A
:1054C00025511C4800F0FDF820B31A4800F0B4F94B
:1054D000C4B21948008800F40040D8B90A2C01D0A1
:1054E0000D2C06D11448006840F4004012490860B1
:1054F00010E011480088C0F30D0010490C540E480C
:105500000068401C0C49086008460068FF2801DD5F
:10551000002008604FF45871064800F0D2F838B106
:10552000044800F089F94FF45871024800F052F82D
:1055300010BD000000440040300000202802002080
:1055400010B540F225511F4800F0BBF858B31E4873
:1055500004781C4800F070F91B4908701B4800884B
:1055600000F40040F8B90D2C0AD1084600780A284A
:1055700006D11648006840F400401449086012E063
:105580001148007811490988C1F30D01104A50549F
:105590000E480068401C0D49086008460068FF2856
:1055A00001DD002008604FF45871064800F089F8CA
:1055B00038B1044800F040F94FF45871014800F048
:1055C00009F810BD004800404000002034000020D1
:1055D0002803002010B50022002340F66A14A142DF
:1055E00000D100BF0A1201249440A3B2DC4304801E
:1055F00010BD21B1828942F40052828104E0828987
:105600004DF6FF731A4082817047000010B50446C2
:105610002048844209D101218803FFF76BFD002156
:105620004FF48040FFF766FD32E01B48844209D109
:1056300001214804FFF73EFD00214FF40030FFF741
:1056400039FD25E01548844209D101218804FFF77E
:1056500031FD00214FF48020FFF72CFD18E01048A9
:10566000844209D10121C804FFF724FD00214FF431
:105670000020FFF71FFD0BE00A48844208D10121FA
:105680000805FFF717FD00214FF48010FFF712FD0A
:1056900010BD0000003801400044004000480040B8
:1056A000004C00400050004002460020B1F5007F51
:1056B00000D100BF13880B400BB1012000E0002097
:1056C000704770B50246002400230025002040F6F4
:1056D0006A16B14200D100BFC1F3421501F01F03A9
:1056E000012606FA03F3012D02D19689334006E024
:1056F000022D02D1168A334001E0968A33400C1203
:10570000012606FA04F41688344013B10CB10120C6
:1057100000E0002070BDF0B50346002400260025FF
:10572000002040F66A17B94200D100BF1846C1F305
:10573000421401F01F06012707FA06F5012C01D1DA
:105740000C3004E0022C01D1103000E014301AB10A
:1057500007682F43076002E00768AF430760F0BDAA
:105760002DE9F04786B005460E460024A24600BF4C
:10577000A1460027B08900B100BF2F462C8A4CF605
:10578000FF700440F08804432C82AC894EF6F3107D
:105790000440B08831890843718908430443AC81CF
:1057A000AC8A4FF6FF400440B0890443AC8201A8A4
:1057B000FFF7B0FC1F48874202D1DDF810A001E0DE
:1057C000DDF80CA0A88900F4004040B10AEBCA0043
:1057D00000EB0A1031684900B0FBF1F807E00AEB72
:1057E000CA0000EB0A1031688900B0FBF1F86420B0
:1057F000B8FBF0F004012009642101FB1089A8899D
:1058000000F4004040B1322000EBC900B0FBF1F0E1
:1058100000F00700044308E0322000EB0910642187
:10582000B0FBF1F000F00F0004432C8106B0BDE89E
:10583000F08700000038014001468888C0F3080066
:105840007047C1F308028280704700BFFEE749003D
:1058500050EAC12018BF04204A0D18BF40F00100D3
:1058600040F2FF72B2EB515F08BF40F00200012826
:1058700008BF0520704730380A2801D20120704740
:1058800000207047014600BF704710B5044620460F
:1058900001F05AFC10BD000010B50420FFF718FD00
:1058A000104800681049B0FBF1F0104908700D482D
:1058B00000680D49B0FBF1F44FF47A7044430120C5
:1058C0000B4908804FF0E020006940F002004FF0E3
:1058D000E021086108464461006940F00100086168
:1058E00010BD00001400002040420F0028000020DE
:1058F0002A00002070B5044602F0D6FC012810D022
:105900000B480088844206D309480088B4FBF0F5B0
:10591000284601F031FE06480088B4FBF0F100FB98
:1059200011444FF47A7104FB01F000F003F870BDEC
:105930002A00002070B5034600224FF0E02675696A
:105940000D4E367803FB06F44FF0E026B16910E007
:105950004FF0E026B06988420BD0884202D20E1A7E
:10596000324402E02E1A0E4432440146A24200D3D1
:1059700000E0EDE700BF70BD2800002070B50446D0
:105980000D4616460024012D10D10B4C08E0E068AE
:1059900000B904E009A0E168FDF7EEFC00BF103497
:1059A000054860308442F2D1002070BD04A0FDF7AC
:1059B000E3FC0120F9E70000B80000202573000097
:1059C0002D204E6F2068656C7020617661696C6176
:1059D000626C652E0D0A000070B504460D46164631
:1059E000024903A0FDF7C8FC002070BD2089000813
:1059F00025730D0A000000002DE9F04107460C4612
:105A000015460026022C14D1284600F065FA0646F9
:105A100026B1012E06D0022E09D107E00AA0FDF71B
:105A2000ABFC04E00AA0FDF7A7FC00E006E000BF25
:105A300000E000BF00BF0020BDE8F08106A0FDF738
:105A40009BFC0020F8E700006F6B0D0A00000000CF
:105A50006572726F720D0A00506172616D657472C9
:105A600065206572726F720D0A00000072B602A0A6
:105A7000FDF782FCFFF70AFB7265626F6F7420739B
:105A8000797374656D210D0A0000000072B6FFF78E
:105A9000DFF941F234210248FFF7BAF9FFF7F6FACD
:105AA00000F8070870B504460D461646034B044A35
:105AB000044905A0FDF760FC002070BD4F89000877
:105AC000438900083D89000825732C25732C257314
:105AD0000D0A00000EB501210846FFF7FBFA01216F
:105AE0000846FFF7D5F900208DF808000C208DF846
:105AF000090001208DF80A000220019001A8FFF79B
:105B000023F907208DF8000003208DF801008DF89F
:105B1000020001208DF803006846FFF76BFA0EBD06
:105B20002DE9F0470546DFF85C8000272E21284646
:105B3000FDF765FD5FEA000903D12846FDF78DFDFD
:105B400001E0A9EB050006460E4C10E0324628465F
:105B50002168FDF7A1FD48B92068FDF77EFDB04240
:105B600002D12046BDE8F087A0467F1C10340548CE
:105B700060308442EAD1012F01D14046F2E7002093
:105B8000F0E70000B800002070B504460D4600BFE5
:105B900040210548FFF788FD0028F9D0E1B202480E
:105BA000FFF74FFE204670BD0038014010B502A03F
:105BB000FDF7E2FB10BD00002323204B45593120A7
:105BC00031206C6F6E6720706173730D0A000000E6
:105BD00010B502A0FDF7D0FB10BD00002323204B21
:105BE00045593120312073686F727420706173736E
:105BF0000D0A000010B502A0FDF7BEFB10BD0000AD
:105C00002323204B4559312032206C6F6E67207062
:105C10006173730D0A00000010B50024104800687D
:105C2000E0B907E0601C84B2322C00DD06E01420ED
:105C3000FFF760FE0A4800680028F3D000BF322C4E
:105C40000ADDFFF7D7FF02E01420FFF753FE0448F8
:105C500000680028F8D001E000F004F810BD000052
:105C60001801224210B502A0FDF786FB10BD00000E
:105C70002323204B45593120322073686F727420E2
:105C8000706173730D0A000010B502A0FDF774FB7C
:105C900010BD00002323204B4559312033206C6F69
:105CA0006E6720706173730D0A00000010B5002448
:105CB00010480068E0B907E0601C84B2322C00DDB7
:105CC00006E01420FFF716FE0A4800680028F3D00B
:105CD00000BF322C0ADDFFF7D7FF02E01420FFF7E8
:105CE00009FE044800680028F8D001E000F004F83C
:105CF00010BD00001C81214210B502A0FDF73CFB45
:105D000010BD00002323204B4559312033207368F8
:105D10006F727420706173730D0A000010B502A0D9
:105D2000FDF72AFB10BD00002323204B45593120ED
:105D300034206C6F6E6720706173730D0A00000071
:105D400010B5002410480068E0B907E0601C84B278
:105D5000322C00DD06E01420FFF7CCFD0A48006875
:105D60000028F3D000BF322C0ADDFFF7D7FF02E096
:105D70001420FFF7BFFD044800680028F8D001E0B8
:105D800000F004F810BD00001881214210B502A0F7
:105D9000FDF7F2FA10BD00002323204B45593120B6
:105DA000342073686F727420706173730D0A000081
:105DB00010B502A0FDF7E0FA10BD00002323204B30
:105DC0004559312035206C6F6E6720706173730DFB
:105DD0000A00000010B5002410480068E0B907E090
:105DE000601C84B2322C00DD06E01420FFF782FD37
:105DF0000A4800680028F3D000BF322C0ADDFFF704
:105E0000D7FF02E01420FFF775FD04480068002862
:105E1000F8D001E000F004F810BD000018012442A1
:105E200010B502A0FDF7A8FA10BD00002323204BF7
:105E300045593120352073686F7274207061737317
:105E40000D0A000010B502A0FDF796FA10BD000083
:105E50002323204B4559312036206C6F6E6720700C
:105E60006173730D0A00000010B50024104800682B
:105E7000E0B907E0601C84B2322C00DD06E014209B
:105E8000FFF738FD0A4800680028F3D000BF322C25
:105E90000ADDFFF7D7FF02E01420FFF72BFD0448CF
:105EA00000680028F8D001E000F004F810BD000000
:105EB0001401244210B502A0FDF75EFA10BD0000E7
:105EC0002323204B45593120362073686F7274208C
:105ED000706173730D0A000070B50446002500263A
:105EE0006068FDF77FFB06460B2E18D007DC072EF7
:105EF00036D2DFE806F03511171D23292F002C2E8E
:105F00001FD004DC162E10D0212E29D113E0372EFD
:105F10001DD0422E24D120E0FFF75AFE22E0FFF7E9
:105F200045FE1FE0FFF79EFE1CE0FFF763FE19E051
:105F3000FFF7E2FE16E0FFF7A7FE13E0FFF726FFEC
:105F400010E0FFF7EBFE0DE0FFF76AFF0AE0FFF756
:105F50002FFF07E0FFF7AEFF04E0FFF773FF01E05C
:105F6000022500BF00BF284670BD000008B5012112
:105F70004FF4AC70FFF7AEF8C020ADF8000004207D
:105F80008DF8030003208DF8020069461148FEF7E2
:105F90009FFF4020ADF8000069460F48FEF798FFCC
:105FA0004FF48040ADF8000069460C48FEF790FFC2
:105FB0006020ADF8000069460948FEF789FF10200F
:105FC0008DF80300C002ADF8000069460348FEF7F3
:105FD0007FFF08BD000C0140001001400018014087
:105FE0000020014010B5FFF717FEFFF75FFEFFF737
:105FF000A7FEFFF7EFFEFFF737FF10BD0AE0FFF740
:10600000F1FF142001F0B8FA03480068C0430349C7
:10601000C1F88801F3E7000088012442000024420F
:1060200008B501214FF4C870FFF754F83020ADF8DF
:10603000000010208DF8030003208DF8020069464F
:106040000F48FEF745FF30210D48FEF7CCFF4FF417
:106050004070ADF8000069460A48FEF739FF4FF47A
:1060600040710848FEF7BFFF0C20ADF800006946FC
:106070000548FEF72DFF0C210348FEF7B4FF08BDCD
:10608000001C014000100140002001401CB54FF4ED
:106090004070FEF7E7FF4FF440514FF00060FEF70D
:1060A000EBFFFFF7BDFFFFF7F7FB4FF4E130FFF722
:1060B000ECFBFFF75BFFFFF70DFD4FF440514FF096
:1060C0000060FEF7D9FF08A001F013F80BE01048BC
:1060D000012100234A02CDE900100EA1104802F070
:1060E000B3F801F0E5FBF2E70A0D626F6172645FDD
:1060F000737570706F72745F7061636B6167655FF9
:10610000636F6E66696775726174696F6E0D0A0000
:106110001801002073746172745F7461736B000006
:10612000F96F000870B504460E46002526E000E031
:10613000641C20782028FBD020780928F8D020780B
:1061400020B9002046F82500284670BD28466D1C61
:1061500046F8204000E0641C207828B120782028F0
:1061600002D020780928F6D1207820B9002046F8FE
:1061700025002846E9E7002004F8010B102DD6DBA6
:10618000102102A0FDF7F8F82846DEE72A2A20545D
:106190006F6F206D616E79206172677320286D6169
:1061A000782E20256429202A2A0D0A002DE9F041A5
:1061B00005460E461C4807681C480068001D01F093
:1061C0001DF850B91948006890F82C10012088403B
:1061D00017490968814316480160681C38B936B10F
:1061E00012480168091D134801F046F81AE07C19AD
:1061F0000E4800684460BC4207D20C480168091D83
:106200000D48006801F01EF80CE008480168091DFF
:106210000A48006801F016F809480068844201D273
:1062200007480460BDE8F0817C0000206800002081
:106230008000002038580020700000206C000020F2
:106240009800002010B5044601F022F824480068A8
:10625000401C234908602348006840B92148046075
:106260000846006801280DD100F0EEF90AE01E484A
:10627000006838B91B480068C06AE16A884201D8E2
:106280001848046019480068401C1849086008460E
:106290000068606494F82C10012088401449096853
:1062A000084313490860E16A01EB8101114A02EBDE
:1062B0008100211D00F0E0FF01F02EF80A4800687F
:1062C00068B108480068C06AE16A884207D24FF0A6
:1062D000805009490860BFF34F8FBFF36F8F10BD27
:1062E0007800002068000020840000209400002036
:1062F000800000206855002004ED00E010B500F09B
:10630000C7FF10480068D0B90F4800F08BFF0F4856
:1063100000F088FF0C480E4908600C480D490860E1
:1063200000221021052001F05FFC064908600846A4
:10633000006820B108A10348006801F0E1F800F00E
:10634000EBFF10BDAC0000204C580020605800202E
:10635000A4000020A8000020546D7251000000002D
:1063600070B523E001F07AFB1348006808B90120FA
:1063700000E00020054602F023F9BDB900F088FFD7
:106380000D48C068C468201D00F038FF0B48006845
:10639000401E0A4908600A480068401E0849086013
:1063A00000F0BAFF204600F060F800BF0448006823
:1063B0000028D7D170BD00002458002078000020AC
:1063C0007400002070B504460D46206C70B1216C3D
:1063D000E0680844E0606168E068884201D32068B2
:1063E000E0602846226CE168FDF7A1F970BD2DE957
:1063F000F04104460F4615464FF00008A66B206C8E
:1064000040B9206860BB606802F014F88046002044
:10641000606025E07DB93946226CA068FDF787F9F8
:10642000216CA0680844A060D4E90110884217D309
:106430002068A06014E03946226CE068FDF777F927
:10644000216CE068401AE0602168E068884203D26D
:10645000216C6068401AE060022D01D106B1761E01
:10646000701CA0634046BDE8F08110B50446206B67
:1064700000F08AFF204600F087FF10BD0146084A61
:10648000126812680AB9012200E000220A600A6854
:1064900022B9034A1268D268106800E000207047F1
:1064A000A400002030B54FF4A043174800F00704C3
:1064B0002CB1C01D20F00700134C041B1B1B02460F
:1064C000124C22600024114D6C60D018083820F066
:1064D00007000F4C206000240D4D2D686C600C4DA2
:1064E0002D682C601146441A4C60094C24680C60DD
:1064F000084D4C682C60084D4C682C604FF00044EF
:10650000064D2C6030BD000028050020440000200E
:106510004C000020540000205000002058000020B3
:1065200000BFFFF71DFF064800680128F9D94FF0AA
:10653000805004490860BFF34F8FBFF36F8FF0E7BF
:106540006855002004ED00E02DE9F04106460D46B7
:1065500017469846069C0DB9246000E02760E66364
:1065600025640121204601F05DFC84F85080002064
:10657000A064BDE8F08100002DE9F05F82460F467F
:1065800090469B460A9E0C9C4FEA8801A522206BF0
:10659000FDF712F9A8F10100216B01EB800929F048
:1065A000070909F0070008B9012000E0002028B918
:1065B00040F22B321BA120A0FCF7DEFE002507E0F5
:1065C000795D04F134004155785D00B902E06D1C3D
:1065D000102DF5D300BF002143200155202E00D3FC
:1065E0001F26E662E66400202065201D00F027FEDD
:1065F00004F1180000F023FE2461C6F12000A06120
:1066000064620020606584F858005A465146484646
:1066100000F03AFC20600B9808B10B980460BDE8CC
:10662000F09F00002E2E5C4672656552544F535CFD
:106630007461736B732E63004572726F723A2573C7
:106640002C25640D0A00000010B5002407E004EBBF
:1066500084010F4A02EB810000F0E4FD641C202C51
:10666000F5D30C4800F0DEFD0B4800F0DBFD0B48D5
:1066700000F0D8FD0A4800F0D5FD0A4800F0D2FD30
:1066800004480949086004480849086010BD000032
:1066900068550020E8570020FC57002010580020C3
:1066A00024580020385800206C0000207000002082
:1066B00010B50146164800E0006803688B42FBD322
:1066C0000246436813448B4204D143684C68234418
:1066D000436001460A464B6813440468A34211D143
:1066E0000C4C03682468A34208D04B6804686468B3
:1066F00023444B6003681B680B6005E0054B1B6877
:106700000B6001E003680B60884200D0016010BD9F
:10671000440000204C0000202DE9F04104460D46C5
:1067200016461F464FF0000865602461B5420CD83C
:10673000F01BA169884202D34FF0010811E0211D2E
:106740000948006800F07EFD0BE0BE4204D2BD4265
:1067500002D34FF0010804E0211D0448006800F056
:1067600071FD4046BDE8F081A8000020A400002093
:1067700070B5054600F08CFDA86B08B9012400E057
:10678000002400F0C9FD204670BD70B5054600F03C
:106790007FFDA86BE96B884201D1012400E0002451
:1067A00000F0BAFD204670BD2DE9F3410D4600987A
:1067B000846C00272CB940F6CE121AA11EA0FCF75B
:1067C000DBFDA06BE16B884201D2012000E00020DC
:1067D00028B940F6CF1213A117A0FCF7CDFDA06B8E
:1067E000E16B88421BD294F945602A4669462046EF
:1067F000FFF7FDFD0746701C60B9606A08B901200B
:1068000000E0002050B904F1240001F07FFE28B11F
:10681000012703E0701C40B284F8450000BF3846F1
:10682000BDE8FC812E2E5C4672656552544F535C68
:1068300071756575652E63004572726F723A2573C6
:106840002C25640D0A000000F8B505460F461348D4
:106850000068C068C468201D00F0D0FCE069012811
:1068600018D1A06941192B463A462046FFF754FF3C
:1068700080B1002003462A4601460090204601F0E0
:10688000CFFF06462EB94FF4027205A10AA0FCF70D
:1068900073FD00BF2046616A8847F8BDA400002050
:1068A0002E2E5C4672656552544F535C74696D655B
:1068B00072732E63000000004572726F723A257386
:1068C0002C25640D0A000000F0B587B070E0039835
:1068D00000280CDA04AE2EB940F2E7223AA140A01B
:1068E000FCF74AFDD6E90020B168904700BF039845
:1068F00000285DDB059C606908B9012000E00020EC
:1069000010B9201D00F07AFC02A800F0C7F8054677
:1069100003980A284AD2DFE800F00905072C2E4523
:1069200006082D2F00BF00BF00BF00BF0498A2695A
:10693000811803462A462046FFF7EEFEC0B12046E6
:10694000616A8847E069012812D10020009004980C
:10695000A169421800231946204601F061FF07464D
:106960002FB940F2213218A11DA0FCF705FD00BF90
:106970001DE000BF1BE000BF0498A061A06908B142
:10698000012000E0002028B94FF44E720EA114A09F
:10699000FCF7F2FCA06941192B462A462046FFF776
:1069A000BBFE04E0204600F0EFFC00E000BF00BFAB
:1069B00000231A4603A90E48006801F04FF9002889
:1069C00085D107B0F0BD00002E2E5C467265655281
:1069D000544F535C74696D6572732E630000000040
:1069E0004572726F723A25732C25640D0A000000FF
:1069F000AC000020F8B505460C4601F02FF86846BB
:106A000000F04CF80646009820BB44B9B54206D8C1
:106A100001F0D6FD31462846FFF716FF1CE03CB1D9
:106A20000E480068006808B9012000E00020044614
:106A3000A91B22460A48006800F078FD01F0C0FD5D
:106A400050B94FF0805007490860BFF34F8FBFF334
:106A50006F8F01E001F0B4FDF8BD0000A800002038
:106A6000AC00002004ED00E00A490968096809B992
:106A7000012100E0002121B14FF0FF31064A1160F1
:106A800006E004490968C968C868034A416811609A
:106A9000704700006C0000209800002070B504468C
:106AA00001F012FC054607480068854204D200F058
:106AB0000BF80120206001E0002020600148056003
:106AC000284670BDB40000202DE9F8432DE0214890
:106AD0000068C06805681F480068C068C468201D59
:106AE00000F08CFB2046616A8847E06901281CD1D0
:106AF000A0694619AE4207D966602461211D154878
:106B0000006800F09FFB10E0002003462A46014683
:106B10000090204601F084FE07462FB940F29232E1
:106B20000DA113A0FCF728FC00BF0A48006800680C
:106B300008B9012000E000200028C8D00548D0F89E
:106B400000800F480068034908600D48C0F80080C5
:106B5000BDE8F883A40000202E2E5C4672656552C5
:106B6000544F535C74696D6572732E6300000000AE
:106B70004572726F723A25732C25640D0A0000006D
:106B8000A80000200B480068401C08B9012000E064
:106B9000002020B9F42208A112A0FCF7EDFB00BFF1
:106BA000502080F31188BFF34F8FBFF36F8F00BF6A
:106BB00000BFFEE75C0000202E2E5C467265655229
:106BC000544F535C706F727461626C655C525644D2
:106BD000535C41524D5F434D335C706F72742E6352
:106BE000000000004572726F723A25732C25640D07
:106BF0000A00000070B5054600262C462DB940F26B
:106C000081620EA112A0FCF7B7FB154960698842AA
:106C100001D1012000E0002070B11249A06A884231
:106C200001D1012000E0002030B9A06A08B901209C
:106C300000E0002000B10126304670BD2E2E5C46DB
:106C400072656552544F535C7461736B732E6300AD
:106C50004572726F723A25732C25640D0A0000008C
:106C6000385800201058002008B500BF6846FFF7CC
:106C700005FC044620460099FFF7BCFEFFF724FE02
:106C8000F4E770B5044600F003FB94F945501AE0B0
:106C9000A06C38B100212046FFF786FD88B100F0D6
:106CA0002BFD0EE0606A08B9012000E0002038B931
:106CB00004F1240001F02AFC18B100F01DFD00E0F1
:106CC00003E0681E45B2002DE2DC00BFFF2084F81F
:106CD000450000F021FB00F0DBFA94F9445010E08D
:106CE000206908B9012000E0002048B904F1100033
:106CF00001F00CFC08B100F0FFFC681E45B200E09A
:106D000001E0002DECDC00BFFF2084F8440000F01F
:106D100003FB70BD2DE9F04104464FF0000800F080
:106D20009DFE3E48006808B9FFF7BCFB3C48006880
:106D3000204000285FD1A4B1083404F0070080B1DE
:106D400004F00700C0F10800044404F0070008B98B
:106D5000012000E0002020B9BF2232A13BA0FCF7B7
:106D60000BFB002C47D03D480068844243D83C4E82
:106D70003046056801E02E462D686868A04202D2C0
:106D800028680028F7D125480068854233D030684C
:106D900000F10808286830606868001B102813D9C3
:106DA0002F1907F0070008B9012000E0002020B9E2
:106DB000EC221CA125A0FCF7DFFA6868001B7860B4
:106DC0006C603846FFF774FC244968680968081A43
:106DD000224908600846006822490968884203D2AF
:106DE0001E4800681F4908600D4968680968084323
:106DF00068600020286001F0E3FB08F0070008B994
:106E0000012000E0002028B94FF4967205A10FA0E0
:106E1000FCF7B2FA4046BDE8F08100004C000020CB
:106E2000580000202E2E5C4672656552544F535C0C
:106E3000706F727461626C655C4D656D4D616E67FB
:106E40005C686561705F342E630000004572726F8C
:106E5000723A25732C25640D0A00000050000020B2
:106E600044000020540000200648006830B1054965
:106E7000096801F15000096D491C01600148006872
:106E80007047000068000020001F4FF0807303600F
:106E9000001F21F001030360001F034B036014383F
:106EA0000260203870470000856B00082DE9F04F24
:106EB000D3B0064613AF012001904FF0000B0EB186
:106EC000307820B94FF0FF3053B0BDE8F08F304636
:106ED000FCF7C3FBFF2805D934A0FCF74DFA4FF0AF
:106EE000FF30F1E7314613A8FCF793FB54E04FF075
:106EF000000A3C461BE0207827280AD114F8010C30
:106F00005C2806D0BAF1000F01D1012000E000207A
:106F10008246BAF1000F09D120783B2806D1BC4245
:106F200004D014F8010C5C2800D003E0641C207825
:106F30000028E0D100BFB946207818B1671C0020B6
:106F4000207000E0274602A94846FFF7EBF85FEA09
:106F5000000802D14FF0FF3B1EE00298FEF7E0FD73
:106F6000050006D117A00299FCF706FA4FF0FF3B87
:106F700012E06868404506DA1BA0E968FCF7FCF9F6
:106F80004FF0FF3B08E002AA41462846AB6898470D
:106F900008B14FF0FF3B00BF38780028A7D1BBF104
:106FA000000F01D058468FE701988DE72323204337
:106FB0006F6D6D616E6420746F6F206C6F6E6721F2
:106FC0000D0A0000556E6B6E6F776E20636F6D6DEE
:106FD000616E642027257327202D20747279202765
:106FE00068656C70270D0A0055736167653A0D0A74
:106FF00025730D0A000000001CB5044600F048F996
:107000001248022100230A02CDE9001010A1134802
:1070100001F01AF91248032100234FF40072CDE960
:10702000001010A1124801F00FF9124804210023AA
:10703000CA01CDE9001010A1134801F005F9134869
:10704000006800F0D3FA00F067F91CBD24010020AD
:107050006B65795F7461736B00000000FD5F000871
:107060001C0100207461736B315F7461736B0000ED
:10707000C57000082001002075617274315F616E77
:10708000616C797369730000E570000818010020D5
:1070900010B500240948008800F4004048B10748B2
:1070A0000088C0F30D040020054908550846FFF785
:1070B000FDFE00200149086010BD00002C000020EA
:1070C0002801002008E005480068C0430449C1F8D1
:1070D0008C01322000F050FAF5E700008C012442C8
:1070E0000000244204E0FFF7D3FF002000F036FC4C
:1070F000F9E70FB400B5ADF5017D83A8809068462F
:10710000809A8299FCF726F900208090684600F06A
:1071100005F80DF5017D5DF814FB000010B504467F
:107120000BE000BF40210748FEF7BEFA0028F9D067
:1071300014F8011B0348FEF784FB20780028F0D1E7
:1071400010BD00000038014010B586B00446012192
:1071500044F20400FDF7BEFF2648FEF757FA4FF44D
:107160000070ADF8140003208DF8160018208DF87B
:10717000170005A92048FDF7ABFE4FF48060ADF87D
:10718000140004208DF8170005A91B48FDF7A0FE88
:1071900001940020ADF80800ADF80A00ADF80C002D
:1071A000ADF810000C20ADF80E0001A91148FEF753
:1071B000D7FA25208DF8000006208DF80100032065
:1071C0008DF8020001208DF803006846FDF712FFDC
:1071D000012240F225510748FEF79DFA012240F2B4
:1071E00024410448FEF797FA01210248FEF701FA0C
:1071F00006B010BD003801400008014001460A6990
:10720000D1E901309860D1E90103586050688842A3
:1072100001D188685060002008611068401E10602D
:107220001068704700F1080141604FF0FF31816044
:1072300000F10801C1600161002101607047002177
:107240000161704710B502460B685C1C0CB91069EF
:1072500007E002F1080000E04068446824689C42AE
:10726000FAD944684C604C68A160886041600A614A
:107270001468641C146010BD42684A6093688B6097
:10728000936859609160086103685B1C03607047F4
:1072900010B500BF502080F31188BFF34F8FBFF3AC
:1072A0006F8F00BF0B480068401C0A490860084601
:1072B000006801280DD108480068C0B208B9012053
:1072C00000E0002028B94FF4BD7204A10EA0FCF725
:1072D00053F810BD5C00002004ED00E02E2E5C464B
:1072E00072656552544F535C706F727461626C6565
:1072F0005C525644535C41524D5F434D335C706F5A
:1073000072742E63000000004572726F723A25732A
:107310002C25640D0A00000010B50B48006828B940
:1073200040F2811209A114A0FCF726F80648006873
:10733000401E054908600846006820B9002080F317
:10734000118800BF00BF10BD5C0000202E2E5C46DF
:1073500072656552544F535C706F727461626C65F4
:107360005C525644535C41524D5F434D335C706FE9
:1073700072742E63000000004572726F723A2573BA
:107380002C25640D0A00000070B506463546002E17
:1073900035D0083D2C461A4960680968084008B194
:1073A000012000E0002028B94FF4A07215A11FA011
:1073B000FBF7E2FF206808B9012000E0002028B9AF
:1073C00040F241120FA119A0FBF7D6FF0C496068EB
:1073D0000968084098B1206888B909496068096857
:1073E0008843606000F03AFB14496068096808440B
:1073F000124908602046FFF75BF901F0E1F870BD23
:10740000580000202E2E5C4672656552544F535C26
:10741000706F727461626C655C4D656D4D616E6715
:107420005C686561705F342E630000004572726FA6
:10743000723A25732C25640D0A00000050000020CC
:10744000064800684FF47A71B0FBF1F0401E4FF02F
:10745000E021486107200861704700001400002007
:1074600070B5FBF751FF0546102D11D305F1E02053
:1074700090F8F04310480078844201DB012000E0DE
:10748000002028B94FF42A720CA117A0FBF774FF53
:107490001948006800F4E06018490968884201D87A
:1074A000012000E0002028B94FF42E7203A10EA0A5
:1074B000FBF762FF70BD0000600000202E2E5C46CE
:1074C00072656552544F535C706F727461626C6583
:1074D0005C525644535C41524D5F434D335C706F78
:1074E00072742E63000000004572726F723A257349
:1074F0002C25640D0A0000000CED00E06400002063
:10750000024600200BE0084B53F8303033B9064BED
:1075100043F8301003EBC0035A6002E0401C082817
:10752000F1D300BF70470000285500202DE9F0413D
:1075300005460E4617462C46FFF7AAFE94F944006E
:10754000401C10B9002084F8440094F94500401C08
:1075500010B9002084F84500FFF7DEFEA06B28B9C3
:107560003A46314604F1240000F0F6F82046FFF7D1
:1075700088FBBDE8F081000070B504460025ACB181
:107580000F48006808B9012000E0002028B940F247
:10759000CF420CA110A0FBF7EFFE00F05FFA002134
:1075A0002046FEF703FE01F00BF805463DB94FF00B
:1075B00080500D490860BFF34F8FBFF36F8F70BDD0
:1075C000A00000202E2E5C4672656552544F535C1D
:1075D0007461736B732E63004572726F723A257318
:1075E0002C25640D0A00000004ED00E070B505468E
:1075F000FFF74EFE15B92D48006800E02846044606
:10760000201DFFF7FBFD78B9E06A00EB80002849F8
:1076100051F8200040B994F82C10012088402549E9
:107620000968814323480160A06A18B104F1180079
:10763000FFF7E4FD20480068401C1F4908601B4814
:107640000068844209D1211D1C48FFF715FE1C4823
:107650000068401C1A49086009E01A480068401E8A
:10766000184908602046FEF700FFFFF7FDF9FFF715
:1076700053FE15480068C0B10C480068844214D11C
:107680001248006808B9012000E0002028B940F243
:1076900065420FA113A0FBF76FFE4FF08050154914
:1076A0000860BFF34F8FBFF36F8F70BD680000207D
:1076B00068550020800000209400002024580020FD
:1076C000740000207800002084000020A00000202A
:1076D0002E2E5C4672656552544F535C7461736B19
:1076E000732E63004572726F723A25732C25640DF8
:1076F0000A00000004ED00E0012001490860704725
:107700008C00002070B504460D462CB940F60632B8
:1077100007A10CA0FBF730FE0E4801681831204687
:10772000FFF790FD01212846FEF740FD70BD0000E7
:107730002E2E5C4672656552544F535C7461736BB8
:10774000732E63004572726F723A25732C25640D97
:107750000A0000006800002070B505460E46144679
:107760002DB940F6313209A10DA0FBF705FE1048F6
:10777000016818312846FFF77FFD0CB14FF0FF3646
:1077800021463046FEF712FD70BD00002E2E5C46ED
:1077900072656552544F535C7461736B732E630052
:1077A0004572726F723A25732C25640D0A00000031
:1077B0006800002070B505462C46002D4BD02649A8
:1077C000E06A0968C96A884245D2A06900F00040B1
:1077D00028B921480068C06AC0F12000A061E16AB0
:1077E00001EB81011D4A02EB81016069884201D1F0
:1077F000012000E0002050B3201DFFF7FFFC78B906
:10780000E06A00EB8000154951F8200040B994F877
:107810002C100120884012490968814310480160FA
:107820000D480068C06AE06294F82C10012088407E
:107830000B49096808430A490860E16A01EB8101C4
:10784000064A02EB8100211DFFF716FD03E0024806
:107850000068C06AE06270BD6800002068550020C2
:107860008000002010B504462CB940F6C13205A1B5
:1078700009A0FBF781FD0C48006820600B480068F8
:10788000606010BD2E2E5C4672656552544F535C8D
:107890007461736B732E63004572726F723A257355
:1078A0002C25640D0A000000900000207C000020C0
:1078B0001CB51A4800210B468222CDE9001018A100
:1078C000194800F0C1FC0446012C02D100F06EFF03
:1078D0000446012C15D100BF502080F31188BFF35E
:1078E0004F8FBFF36F8F00BF4FF0FF300F4908601D
:1078F00001200F49086000200E49086000F00AF9D5
:107900000BE0601C08B1012000E0002028B940F223
:10791000847209A10DA0FBF72FFD1CBD9C00002067
:1079200049444C45000000002165000898000020F3
:10793000840000207C0000202E2E5C46726565527B
:10794000544F535C7461736B732E63004572726F96
:10795000723A25732C25640D0A00000070B50546A7
:10796000FFF796FC15B92C48006800E0284604464D
:10797000201DFFF743FC78B9E06A00EB800027493F
:1079800051F8200040B994F82C1001208840244977
:107990000968814322480160A06A18B104F1180007
:1079A000FFF72CFC211D1F48FFF766FCFFF7B4FC16
:1079B0001D48006828B1FFF76BFCFFF755F8FFF78B
:1079C000ABFC15480068844224D117480068A8B170
:1079D0001648006808B9012000E0002028B940F2EC
:1079E000576213A117A0FBF7C7FC4FF0805019494D
:1079F0000860BFF34F8FBFF36F8F0BE0094800683B
:107A000015490968884203D100200349086001E054
:107A100000F02CF870BD00006800002068550020C0
:107A2000800000203858002084000020A0000020A2
:107A30002E2E5C4672656552544F535C7461736BB5
:107A4000732E63004572726F723A25732C25640D94
:107A50000A00000004ED00E0780000200248006801
:107A6000401C014908607047A000002010B51B4869
:107A7000006818B101201A4908602DE0002018495B
:107A8000086018480068B0FA80F0C0F11F0404EBE9
:107A90008400154951F8200008B1012000E00020C1
:107AA00028B940F6F62211A115A0FBF765FC04EBFE
:107AB00084010D4A02EB810041684968416000F190
:107AC000080142688A4202D14168496841604168C0
:107AD000C9680F4A116000BF10BD0000A00000205F
:107AE0008C00002080000020685500202E2E5C466F
:107AF00072656552544F535C7461736B732E6300EF
:107B00004572726F723A25732C25640D0A000000CD
:107B1000680000201CB52248014609780191FF2128
:107B2000024611700146097800919DF8001001F09D
:107B300050011C4A117007211B4A116009E01A49C3
:107B40000968491E184A11609DF800104906090E7F
:107B500000919DF8001001F080018029EFD01249BA
:107B600009680902104A11601146098801F4E061B0
:107B700011600B4A019911700C48006840F47000C4
:107B80000A4908600846006840F070400860FFF746
:107B900057FC002006490860FBF780FB00201CBD55
:107BA00000E400E0600000206400002020ED00E020
:107BB0005C00002010B500BF502080F31188BFF397
:107BC0004F8FBFF36F8F00BF00F084FB18B14FF0F1
:107BD00080500449086000BF002080F3118800BF76
:107BE00010BD000004ED00E02DE9F84305460E4607
:107BF00090460DB1012000E0002028B94FF4C47276
:107C00000DA112A0FBF7B8FB0EB9002701E005FBA0
:107C100006F707F15400FFF77DF8044644B104F17C
:107C2000540943464A46314628460094FEF78CFCE8
:107C30002046BDE8F88300002E2E5C467265655232
:107C4000544F535C71756575652E63004572726F94
:107C5000723A25732C25640D0A0000002DE9FF47B8
:107C600082B005460E461F464FF0000A2C462CB93E
:107C700040F2DC4261A166A0FBF77EFB0EB9206CEE
:107C800008B9012000E0002028B940F2DD425BA1E4
:107C90005FA0FBF771FB00F007FB08B9049808B977
:107CA000012000E0002028B94FF49C6253A158A0A5
:107CB000FBF762FB00BFFFF7EBFAD4F83890B9F19D
:107CC000000F3DD0D4F80C8031462046FEF77AFBF9
:107CD000DFB9A9F10100A063206810B9FFF7C4F86B
:107CE0006060206908B9012000E0002010BB04F1A9
:107CF000100000F00BFCE8B14FF0805048490860DC
:107D0000BFF34F8FBFF36F8F14E0C4F80C80606A2D
:107D100008B9012000E0002060B904F1240000F05F
:107D2000F5FB38B14FF080503D490860BFF34F8FED
:107D3000BFF36F8FFFF7F0FA012006B0BDE8F087C0
:107D4000049818B9FFF7E8FA0020F6E7BAF1000F37
:107D500004D16846FFF786FD4FF0010AFFF7DCFA11
:107D6000FFF77CFEFFF794FA94F94400401C10B929
:107D7000002084F8440094F94500401C10B900200C
:107D800084F84500FFF7C8FA04A9684600F00CFA29
:107D900040BB2046FEF7ECFCF0B1206830B9FFF79D
:107DA00077FA6068FFF706FDFFF7B6FA04F12400E2
:107DB0000499FFF7A7FC2046FEF763FF00F000FCE4
:107DC00000287FF478AF4FF0805015490860BFF36A
:107DD0004F8FBFF36F8F6EE72046FEF752FF00F024
:107DE000EFFB68E72046FEF74CFF00F0E9FB20467A
:107DF000FEF7BEFC0028EED000209EE72E2E5C464B
:107E000072656552544F535C71756575652E6300DC
:107E10004572726F723A25732C25640D0A000000BA
:107E200004ED00E070B505460E462C462CB940F234
:107E30001B121EA122A0FBF79FFAFFF729FAD4E933
:107E40000F12206801FB020060600020A063206820
:107E5000A060E06B401E226C216800FB0210E06015
:107E6000FF2084F8440084F845009EB9206908B9D1
:107E7000012000E00020A8B904F1100000F046FB4A
:107E800080B14FF0805012490860BFF34F8FBFF3AD
:107E90006F8F07E004F11000FFF7C4F904F124002C
:107EA000FFF7C0F9FFF738FA012070BD2E2E5C46AF
:107EB00072656552544F535C71756575652E63002C
:107EC0004572726F723A25732C25640D0A0000000A
:107ED00004ED00E02DE9FF4383B0064688461D46C9
:107EE0004FF0000934462CB940F2D92260A165A0B8
:107EF000FBF742FAB8F1000F01D1206C08B901205C
:107F000000E0002028B940F2DA2259A15DA0FBF779
:107F100033FA022D02D1E06B012801D1012000E0EB
:107F2000002028B940F2DB2251A156A0FBF724FA29
:107F300000F0BAF908B9059808B9012000E000205E
:107F400028B940F2DE224AA14EA0FBF715FA00BF85
:107F5000FFF79EF9A06BE16B884201D3022D38D167
:107F60002A4641462046FEF742FA0746A06C68B111
:107F700029462046FEF718FC28B34FF080504549AB
:107F80000860BFF34F8FBFF36F8F1CE0606A08B9C2
:107F9000012000E0002068B904F1240000F0B6FAE6
:107FA00088B14FF080503B490860BFF34F8FBFF35B
:107FB0006F8F08E03FB14FF0805036490860BFF343
:107FC0004F8FBFF36F8FFFF7A7F9012007B0BDE810
:107FD000F083059818B9FFF79FF90020F6E7B9F18B
:107FE000000F04D101A8FFF73DFC4FF00109FFF796
:107FF00093F9FFF733FDFFF74BF994F94400401C68
:1080000010B9002084F8440094F94500401C10B9D0
:10801000002084F84500FFF77FF905A901A800F0CA
:10802000C3F8F0B92046FEF7B0FBA0B104F1100090
:108030000599FFF767FB2046FEF723FE00F0C0FA24
:10804000002885D14FF0805012490860BFF34F8F50
:10805000BFF36F8F7CE72046FEF713FE00F0B0FA07
:1080600076E72046FEF70DFE00F0AAFA0020ADE705
:108070002E2E5C4672656552544F535C7175657562
:10808000652E63004572726F723A25732C25640D5C
:108090000A00000004ED00E02DE9F05F80468A460A
:1080A00015461E4644462CB940F29F3235A13AA0EF
:1080B000FBF762F9BAF1000F01D1206C08B9012079
:1080C00000E0002028B94FF468722EA132A0FBF71F
:1080D00053F9022E02D1E06B012801D1012000E00A
:1080E000002028B940F2A13226A12BA0FBF744F9C9
:1080F000FFF7B6F900BF5021EFF3118081F311882B
:10810000BFF34F8FBFF36F8F00BF0746A06BE16BCC
:10811000884201D3022E2BD194F945B03246514604
:108120002046FEF764F90BF10100C8B9A06C40B11C
:1081300031462046FEF738FBB8B1B5B101202860C2
:1081400013E0606A08B9012000E0002068B904F17A
:10815000240000F0DBF940B13DB10120286004E0CB
:108160000BF1010040B284F845004FF0010901E035
:108170004FF0000900BF87F3118800BF4846BDE8F3
:10818000F09F00002E2E5C4672656552544F535C82
:1081900071756575652E63004572726F723A25734D
:1081A0002C25640D0A0000002DE9F04104460D461F
:1081B0002CB940F6CB3219A11DA0FBF7DDF82DB983
:1081C00040F6CC3215A11AA0FBF7D6F8FFF760F8FD
:1081D0001B4807682868401C08B9002619E019499F
:1081E00020680968884204D06068B84201D8012636
:1081F0000FE06068381A2968884209D228686168E7
:10820000791A401A28602046FFF72CFB002600E070
:108210000126FFF781F83046BDE8F0812E2E5C463E
:1082200072656552544F535C7461736B732E6300B7
:108230004572726F723A25732C25640D0A00000096
:108240007C000020900000202DE9FF4F85B0804683
:1082500089461746DDE912ABB800FEF75BFD06461E
:1082600056B15C20FEF756FD04460CB1266304E0CF
:108270003046FFF789F800E000247CB10020CDE90A
:1082800000ABCDE902403A4649464046089BFEF71E
:1082900073F92046FDF7D6FF012501E04FF0FF35C9
:1082A000284609B0BDE8F08F0549096809B90120E1
:1082B00005E00449096809B9022000E00020704780
:1082C00084000020A00000200149086870470000D9
:1082D0007C0000202DE9F0414FF000084148006883
:1082E000002872D140480068451C3F480560EDB940
:1082F0003E480068006808B9012000E0002028B965
:1083000040F6D9123AA13FA0FBF736F83748076884
:1083100040480068354908603E4807603E480068AC
:10832000401C3D490860FEF79FFB00BF3B480068CA
:1083300085423CD300BF2D480068006808B9012081
:1083400000E0002020B14FF0FF30344908602DE0FC
:1083500026480068C068C4686668B54202D22F48E3
:10836000066023E0201DFEF749FFA06A18B104F162
:108370001800FEF743FF94F82C100120884028498C
:108380000968084326490860E16A01EB8101254A32
:1083900002EB8100211DFEF76FFF2349E06A0968A7
:1083A000C96A8842C7D34FF00108C4E700BF1E481E
:1083B0000068C06A00EB80001A4951F820000128CB
:1083C00001D94FF0010805E0FFE718480068401C9C
:1083D000164908601648006808B14FF00108404689
:1083E000BDE8F081A00000207C0000206C0000208F
:1083F0002E2E5C4672656552544F535C7461736BEC
:10840000732E63004572726F723A25732C25640DCA
:108410000A0000007000002090000020980000205A
:10842000800000206855002068000020880000209F
:108430008C00002070B505462C460026002D4BD040
:1084400026480068844201D1012000E0002028B9BC
:1084500040F6C76222A127A0FAF78EFF206D28B947
:1084600040F6C9621EA123A0FAF786FF206D401EC8
:108470002065E16CE06A88422ED0206D60BB201D33
:10848000FEF7BCFE78B9E06A00EB80001D4951F8A8
:10849000200040B994F82C10012088401A4909683E
:1084A000814319480160E06CE062E06AC0F120009D
:1084B000A06194F82C1001208840134909680843F2
:1084C00011490860E16A01EB81010E4A02EB81006B
:1084D000211DFEF7D1FE0126304670BD6800002048
:1084E0002E2E5C4672656552544F535C7461736BFB
:1084F000732E63004572726F723A25732C25640DDA
:108500000A000000685500208000002070B5064673
:10851000F068C4682CB940F661321AA11EA0FAF7BF
:108520002BFF04F11800FEF769FE1F480068A8B988
:10853000201DFEF763FE94F82C10012088401B4993
:108540000968084319490860E16A01EB8101184A8A
:1085500002EB8100211DFEF78FFE04E004F11801FB
:108560001448FEF789FE1449E06A0968C96A88421E
:1085700004D9012501201149086000E000252846A2
:1085800070BD00002E2E5C4672656552544F535CE0
:108590007461736B732E63004572726F723A257348
:1085A0002C25640D0A000000A0000020800000209F
:1085B0006855002010580020680000208C00002022
:1085C00070B5002400263448006828B94FF4FD62D5
:1085D00032A137A0FAF7D0FEFEF75AFE2E48006807
:1085E000401E2D4908600846006800284FD13448D5
:1085F000006800284BD024E03248C068C46804F109
:108600001800FEF7FBFD201DFEF7F8FD94F82C1076
:10861000012088402C49096808432B490860E16A19
:1086200001EB8101294A02EB8100211DFEF724FEA6
:108630002749E06A0968C96A884202D301202549AE
:1086400008602048006808B9012000E000200028E8
:10865000D2D00CB1FEF708FA1F48056865B100BF1B
:10866000FFF738FE10B101201A4908606D1E002D79
:10867000F6D10020184908601648006838B1012674
:10868000300716490860BFF34F8FBFF36F8FFEF7B7
:1086900043FE304670BD0000A00000202E2E5C4638
:1086A00072656552544F535C7461736B732E630033
:1086B0004572726F723A25732C25640D0A00000012
:1086C000780000201058002080000020685500200D
:1086D000680000208C0000208800002004ED00E0ED
:1086E0002DE9F0410646002734462EB940F2E262F9
:1086F00020A125A0FAF740FEFEF7B2FE00BF5021F0
:10870000EFF3118081F31188BFF34F8FBFF36F8FA9
:1087100000BF05462046FEF76DFA20B31E480068EC
:10872000E0B91E49E06A0968C96A884200D3012796
:10873000201DFEF763FD94F82C1001208840184995
:108740000968084316490860E16A01EB8101154A8E
:1087500002EB8100211DFEF78FFD04E004F11801FA
:108760001148FEF789FD00BF85F3118800BF384628
:10877000BDE8F0812E2E5C4672656552544F535C05
:108780007461736B732E63004572726F723A257356
:108790002C25640D0A000000A000002068000020C5
:1087A0008000002068550020105800201CB50024CF
:1087B000FDF7A4FD0B48006858B10B481F210023AA
:1087C0004FF48272CDE9001008A10A48FFF73CFD82
:1087D00004462CB940F2331207A10DA0FAF7CCFDE4
:1087E00020461CBDAC000020B0000020546D72205B
:1087F00053766300696C00082E2E5C4672656552E4
:10880000544F535C74696D6572732E6300000000F1
:108810004572726F723A25732C25640D0A000000B0
:108820002DE9FF4704460D4616461F46DDF8308009
:108830004FF000092CB94FF4D37217A11CA0FAF71E
:108840009BFD1F48006810B3009501960294062D09
:1088500015DAFFF729FD022808D1002342466946B0
:1088600017480068FFF736FB814610E000231A46E0
:10887000694613480068FFF72DFB814607E0002397
:108880003A4669460E480068FFF706FC81464846AE
:1088900004B0BDE8F08700002E2E5C46726565527C
:1088A000544F535C74696D6572732E630000000051
:1088B0004572726F723A25732C25640D0A00000010
:1088C000AC00002010B500290AD00878002807D095
:1088D00005487844FBF710FE002801D0002010BDA9
:1088E0000248784410BD00006A02000062020000E5
:1088F00010B500290AD00878002807D00548784428
:10890000FBF7FAFD002801D0002010BD0248784492
:1089100010BD00004E03000046030000FBF71ABB29
:10892000476F73742C44656D6F2C424A41352E326B
:1089300039372E3535362C56312E33300056312E00
:108940003330004465632032362032303138003213
:10895000313A30333A34350004000008000000009A
:1089600000000002000100001000000000000000F4
:108970000000000030313233343536373839414267
:108980004344454640305800303132333435363771
:1089900038396162636465664030780002400000E7
:1089A000000000A00000000005400000000000C81A
:1089B000000000000C4000000000409C000000008F
:1089C000194000000020BCBE000000003440000040
:1089D000BFC91B8E00000004B5400000504BCFD033
:1089E0006607E2CF010000006C4100003E8251AA00
:1089F000DFEEA73401000000D9420000DCB5A0E2A0
:108A00003A301F97FFFFFFFFB4450000FD25A0C8C7
:108A1000E9A3C14FFFFFFFFFFF3F00000000008000
:108A200000000000FF3F0000000000800000000088
:108A30007265626F6F7420202D205265626F6F74B3
:108A400020746865206D616368696E650D0A0000B9
:108A500075706772616465202D205570677261645E
:108A6000652073797374656D0D0A00007665723F39
:108A7000202020202D205072696E74206D6F6E6949
:108A8000746F722076657273696F6E0D0A00000054
:108A900068656C70202020202D205072696E742033
:108AA0006F6E6C696E652068656C700D0A00000061
:108AB0002A6B6579202020202D204B657920746554
:108AC00073740D0A000000002A69646E3F202020A4
:108AD0002D204964656E74696669636174696F6E9F
